:040000006F30A000BD
:100004000000000000000000724B0000764B00006E
:10001400000000004001000000000000000000009B
:100024004001000008300000000000000000000053
:10003400083000000000000008300000000000004C
:1000440008300000083000000830000008300000CC
:1000540008300000083000000830000008300000BC
:1000640008300000083000000830000008300000AC
:10007400083000000830000008300000083000009C
:10008400083000000830000008300000083000008C
:10009400083000000830000008300000083000007C
:1000A400083000000830000008300000083000006C
:1000B400804B0000083000000830000008300000C9
:1000C400083000000830000008300000083000004C
:1000D400083000000830000008300000083000003C
:1000E40008300000444A00000830000008300000D6
:1000F40008300000784B000008300000944B0000EA
:100104003C2F0000083000000830000008300000D8
:10011400083000000830000000000000000000006B
:1001240000000000000000000000000000000000CB
:0C013400000000000000000000000000BF
:100140009305000273A04580824573901534924058
:100150002242B2424243D2436244F2440255925593
:100160002256B2564257D2576258F258064996491B
:10017000264AB64A464BD64B664CF64C065D965D13
:10018000265EB65E465FD65F09617300203041117E
:1001900006C6D52BEF504003EDBF23AC05FE1C4136
:1001A00081E70CC18280BA8703A787FF6DFF23AC6C
:1001B000B7FE8280411126C24AC0B744024006C63B
:1001C00022C403A9C42023A604200F10000009E9BB
:1001D00023A62421B2402244924402494101828054
:1001E0002A842105BD654205C18D4181EF20E06F64
:1001F00001CDFD5723200500231285002303F500C0
:1002000023A624212105F9B723A624210145D9B726
:1002100001114AC84EC6B747024006CE22CC26CAB4
:1002200083A9C7202A8923A607200F1000009797CB
:1002300000209387277B80438144014619E499E895
:10024000A1654A85EFE0106F15A08347E4FF639B2B
:10025000270395CCA685179500201305A578EFE018
:10026000C06B79DCA1654A85EFE07024F2406244FE
:10027000B747024023A6372126854249D244B249D6
:100280000561828091E02286032484FF45BFA28419
:10029000E5BF979700209387E7799C4399E33E85D4
:1002A000828003D727006316B70003C70700E3085F
:1002B000A7FEDC47E5B7B747024003A7C72023A640
:1002C00007200F10000001C599C1814711E6B7470B
:1002D000024023A6E7208280B386F50003C806000B
:1002E000B306F500850723800601E317F6FEC5B7C0
:1002F000374702408327C720232607200F1000001E
:1003000019C191C111E6374702402326F7208280A8
:10031000910503A7C5FF11057D16232EE5FEDDB768
:10032000374702408327C720232607200F100000ED
:1003300001C53307C50011E6374702402326F720E1
:1003400082800505A30FB5FEE31DE5FEF5B7B747AF
:10035000024083A6C72023A607200F100000814774
:100360003307F5000307070019E737470240232644
:10037000D7203E8582808507E5B7011126CA4AC885
:10038000B747024006CE22CC83A4C7202A892E86F6
:1003900023A607200F100000131506019305F00493
:1003A000418132C6EF2060542A8401C53246CA8595
:1003B00019372285F2406244B747024023A69720AE
:1003C0004249D24405618280B747024003A7C72053
:1003D00023A607200F10000001C599C1814711EA2B
:1003E000B747024023A6E720054582808507E30939
:1003F000F6FE3308F500B386F5000348080083C60F
:100400000600E305D8FEB747024023A6E7200145D2
:100410008280B747024003A7C72023A607200F10FA
:1004200000009307F6FFBE952A966317C500B747ED
:10043000024023A6E7208280FD1583C7150005052D
:10044000A30FF5FEDDB7374702408327C7202326D9
:1004500007200F10000001C53307C50019E6374714
:1004600002402326F7200145828005058346F5FFDB
:10047000E397B6FEE31BE5FE374702402326F7204D
:10048000054582807971979700209387A75A22D4D7
:10049000804306D626D24AD04ECE52CC56CA5AC82F
:1004A0005EC669C0B7C4C901014B97990020938902
:1004B000E9579384F437179A0020130AEA57979A5A
:1004C0000020938A6A52179900201309695B8357A9
:1004D000240095E35C44631D0B0017970020232B39
:1004E000F754832BC4002285EF20004F5E84A9A817
:1004F0002326FB00FDB783A7090082971C4433071E
:10050000F5406376F500032749001D8F2A9763E0C5
:10051000E4089797002023A1074E83552400034544
:100520000400EFE0C0785C405844A1CB0C440326A3
:100530004900AE97BE8663E4B70063E4C700B386A4
:10054000C74014C4228B3A8459F0979700209387B0
:10055000A7499C4B05476372F706FD1717970020C4
:10056000232CF748B250225492540259F249624A5D
:10057000D24A424BB24B4561828063170B0097977A
:10058000002023A9E74AB1BF2326EB0099BF032728
:100590008A0209CF63EFA7003385A74083A70A012A
:1005A0006376F5009797002023A8A744228B404448
:1005B00061BF03274900BA97C5B79797002023ADBD
:1005C00007424DB701114EC6B747024006CE22CCB6
:1005D00026CA4AC852C483A9C72023A607200F10E1
:1005E0000000179900201309A9499797002083C795
:1005F000E74903254900ADC39797002083D7C76B10
:10060000A1CF979700209387E75F03A4070B6305AB
:10061000A404979700209387273D984B3E8A630751
:10062000A71097940020938464409C408297636B4A
:10063000A40E9C40098C829703270A016373E4008F
:100640002287B307A7003E858326490063E4E700BD
:1006500063E4D7003385D740B747024023A637214C
:1006600083274900639FA702179400201304C4370F
:100670001848979700209387673B9C43631AA70A03
:10068000829783264900B74736FE938707C8B697F7
:100690003387A7003A856364F7006364D7003305A6
:1006A000D740179400201304646B5C5081CF979758
:1006B00000209387677294433707CDFF7D179C46D0
:1006C000F98F9CC619E1032549008547179700203B
:1006D000232CF76897970020938707369C578297BB
:1006E00011ED5C5099CB5C4489CBEFF0916EEFF04B
:1006F000C1539797002023A9076669335C5099CBB3
:10070000979700209387476D9843B70633001C479F
:10071000D58F1CC7F2406244D2444249B249224AB2
:1007200005618280832749003E9421B722852DB739
:100730008297144803274900B387A6003E8563E4E7
:10074000D700E3E0E7F63385E740A1BF23AAA18AFB
:1007500001C58547238CF18A82809387418B9C4316
:1007600081CF411106C6829783C7818B99E323AA63
:10077000018AB2404101828083C7818B81E723AA2D
:10078000018A82808280411126C206C622C49797C0
:10079000002083C7A72F979400209384A42785EB7C
:1007A0009797002083C7D75B858B17970020130787
:1007B000E75A91CF8347770099466396F60C97974F
:1007C0000020A38F0758EF10B021DC4482979C448F
:1007D00091C382971794002013048425184017961C
:1007E0000020034676209797002083C7E71F939643
:1007F0001700BA9683D60600C5C69797002083C710
:10080000A71E63E9C70A97970020238F071C9797B5
:10081000002083C73755979400209384245463970E
:10082000071297970020938767209C43638B0710DC
:10083000979700209387C724DC4317970020232D28
:10084000F71A8931979700209387071F9C57638A6F
:10085000070E83C7740011476365F70E9797002052
:1008600083C74755918BF1EF83C7818BF9EB10401C
:100870009796002083C6561763C7D70E2244B2400E
:100880009244410181B3834777001D47E311F7F498
:1008900097970020A386074CEF1090149C483DB713
:1008A000850793F7F70F97960020238FF612E3EC56
:1008B000C7F2A1B786073E978355070023100700AC
:1008C0009797002023920716979700209387471445
:1008D0009C43179500200345251113172500BA974F
:1008E0009C4382979797002083D70714179700207F
:1008F0000347870F93C7F7FF7D8D931717001840A5
:100900003E97835707005D8D2310A700979700201F
:1009100083C7870D91C78507179700202306F70C1B
:100920009C4091C782979797002023A5070E1797A1
:1009300000200347670B9797002083C7F70AE374EB
:10094000F7ECB240224492444101828083C7740094
:1009500093F7F70FE39707EC97970020A3840740DE
:10096000EFF0816C7DBD1397170032970357070096
:1009700069FB850711B7374702408326C720F17707
:10098000FD17F58F2326F72001000100979700201F
:1009900093878705C84F832787262326D7206A0594
:1009A00093C7F7FF99835D8D82809797002083C757
:1009B000D70399CF9797002083C7470D81CF97978B
:1009C00000209387E70C03A307006307030002835B
:1009D00005458280094582801305F00F8280979734
:1009E00000209387E71B9843179600200346462173
:1009F00081476315F600814636858280BA861307E3
:100A0000C703835567FCE389A5FE850793F7F70FB6
:100A1000CDB70327851163020712411122C406C610
:100A20008347C5008345E5042A8493F7C70F23064F
:100A3000F500834697000356C7001395860161852C
:100A400063F2C508635B05060345870093F6F60766
:100A5000A304D700054693E627006314C50093E678
:100A600017002306D4005C4389075CC3A30AB400C3
:100A7000032504112E864C430905EFF0DF838327FD
:100A8000841103465401D44303D7C700B296118F93
:100A9000D4C32396E7008947A30DF40003476403FA
:100AA0009797002083C767FA6378F7048347C400E9
:100AB00093E707012306F40081A093E717002306BC
:100AC000F4006DB79376F60F635D0502034587006A
:100AD000854513E627006314B50013E617002306C7
:100AE000C400A30AD400A30407008547A30DF400A3
:100AF000832784119C43DDF3B24022440145410128
:100B0000828093E717002306F400A30AD400A3040D
:100B10000700032504114C430905EFF0CFF98327A3
:100B2000841103465401D44303D7C700B296118FF2
:100B3000D4C32396E7008D4755BF0545828097971C
:100B400000209387E71E9C43411122C406C6858B73
:100B50002A84D5EB4165130525F5EFB0F11945C59C
:100B60008347A5002315F50083270412BDE7232042
:100B7000A4122322A41285472311F4042320050084
:100B80008347640154412316F5000347D40023042E
:100B9000E5000547A304E500179700201307071C8D
:100BA00058531385170215811C437D151375F50FD6
:100BB0009CC25C43DCC21C479CC65C47DCC61C4B29
:100BC0009CCA5C4BDCCA1C4F9CCE5C4FDCCE19CD62
:100BD0009386060213070702C1BF8327441288C306
:100BE000835724042322A412850779B797970020FE
:100BF00083D7C7018507179700202319F700B24054
:100C00002244410182808347C40023090400054532
:100C100093C747002306F400DDB78347850193F7A8
:100C2000E70FC5EF83479501CDEB034625018346CA
:100C3000C50009CA83456503179700200347F7E0FD
:100C400063E7E50013F7060151CB014709C6C18AE6
:100C50000357251E81C68356651E369741C3130769
:100C6000C71217950020035525E2B335A702374672
:100C70000F00411113060624814622C426C206C66F
:100C80007D543305A702EFC060469797002083C7C5
:100C900017DCB384A700979700209387A7F603A7D4
:100CA000C7098327070963F387003E84184375FB50
:100CB00097970020938787D79C43829781476364E7
:100CC000A400B307A440B2402244B3B7970093C72F
:100CD000170092443E854101828081473E85828093
:100CE000979700209387070A98437C53FDFF8280E3
:100CF0000111979700209387E7F022CC03A4470ABD
:100D000026CA9797002083D727D8835464080325E1
:100D100004094AC8B384F402B7470F001387F723C6
:100D20009387072406CE4EC652C456C21799002098
:100D3000130909D5BA94B3D4F402636E9502979956
:100D400000209389A9CE83A70900B3049540829718
:100D500063E7A402898C63C8040283570404A30FC9
:100D6000040085072310F40483470414639F0710CD
:100D70002285352729AA832749003E95C9B78327AD
:100D80004900BE94C1BF83A7090082970327840846
:100D90006367E50A198D8357E4031797002003570B
:100DA000A7CE8E07B387E702130700329387071990
:100DB000B3D7E70263EAA708374A0F00930AFA237A
:100DC000130A0A248357040485072310F404834775
:100DD000041499E32285E1252285EFB08123631A6B
:100DE0000526832604098327C40803274900B697EC
:100DF0003E8563E4D70063E4E7003385E74083473B
:100E0000F401835464082328A4088507A30FF40081
:100E10009797002083D747C7B384F402D694B3D4FE
:100E20004403636C9504B304954083A7090082973B
:100E300063E9A4043385A440E34605F839BF83275A
:100E40004900998F3E9581BFA1452285EFB0E113FE
:100E5000A305A40297970020938707BE03A3470327
:100E60006309031E6244F240D2444249B249224A15
:100E7000924A8945154505610283B3049740AA94B7
:100E80006DB783274900BE9475B72285452D22850D
:100E9000EFB02118631F051A8357640817950020C7
:100EA000035585BEB7460F00B387A7021386F62306
:100EB0009386062403270409230B0402032A49000E
:100EC000B297B3D7D702636FF718B307F7408326FB
:100ED000C4082324F408814AB387E600BE8463E48F
:100EE000D70063E44701B3844741835704022328B2
:100EF0009408B1CB835604040357440237460F00CD
:100F00002312D4023387E640B387E7020357240253
:100F10001306062481468145BA97C207C1833385EB
:100F2000A7022311F402EFC0601C11CD2695B33443
:100F30009500AE94AA8763949A0063644501B30751
:100F400045412328F40883A709008297AA8483A730
:100F500009008297E30D95FE83A709008324840886
:100F6000829763E6A4103385A44063030512835778
:100F700064089799002083D929B1B7440F00B3873B
:100F800037031387F42393840424BA97B3D79702C3
:100F9000179700200347B7ABBA9763EBA70EB3359B
:100FA0009502035924024E86814633059502EFC00F
:100FB000E013330AA9003305390337460F0013063F
:100FC000062481468145EFC0601205C1B337950202
:100FD0004E868146B385B4023385A402BE95EFC028
:100FE000E0103305A9402311A4023545EFF0611646
:100FF0009797002023AA87CA8346B400054797978E
:10100000002083C7A7A86398E606130700FD2307FF
:10101000E400179700201307E7D20843B5C7EFF0A5
:10102000EFF2979600209386E6D590429547179762
:101030000020A308F7D25846F977FD17F98F5CC650
:101040000F1000009C428966060A94C723A2470736
:10105000D8C7F2406244D2444249B249224A924A35
:1010600005618280B3064701B387F6408DB58327BB
:101070004900BE94CDBD130710FC2307E400179769
:1010800000201307A7CB51BF8145EFE0202351BFBC
:101090009797002023AA07C09797002083C7079F30
:1010A00099CF97970020938727C98843EFE0E05EA8
:1010B000B7E700E03707000223A2E72059BF8347C4
:1010C000940285456244F240D2444249B249224AE0
:1010D000924AB395F500C205C181014505616FD003
:1010E000103D011122CC4AC84EC606CE26CA52C4B3
:1010F00056C25AC00347B50085472A842E898329E2
:101100000509631DF71E83570508035BC503979AFE
:10111000002083DA6A97179A0020130A6A9663F709
:10112000671B834605016393E61A03278511631F36
:1011300007180327450A631B07188346F5001D4758
:101140006396E6180355A503330BFB409307204E27
:10115000330565038324440937460F00130606242C
:1011600081463305F5029797002083C7478EB35415
:101170009502B3B5AA02BE94C204C1802313940899
:101180003385AA02EFB09076AA9933B5A9002E95BF
:101190004E8783274A0019E163E4F9003387F94059
:1011A000B3845403B7460F009387F623938606242F
:1011B0002320E900BE94B3D4D40293171B00A69752
:1011C0006360F7101D8F2320E90097990020938911
:1011D000E98583A7090083240900829763E3A412A9
:1011E0003385A4406352050C83A709008297032727
:1011F0000900636FE510198D8357E40317970020EA
:10120000035787888E07B387E70213070032938757
:101210000719B3D7E70263E5A710374A0F00130B8E
:10122000FA23979A0020938AAA85130A0A248357DF
:10123000040485072310F4048347041499E32285EA
:10124000B92C2285EFA0F15C65E983260409832788
:10125000C40803A74A00B6973E8563E4D70063E459
:10126000E7003385E7408347F4018354640823286B
:10127000A4088507A30FF4009797002083D7C780A1
:10128000B384F402DA94B3D444036366950CB304D4
:10129000954083A7090023209900829763E1A40C5D
:1012A0003385A440E34505F89787002083C7377A44
:1012B00063E5A7089797002023A8879E0145B5A856
:1012C00083264A00B387F6403E97F5BD83576408EE
:1012D00037470F00B38457039307F723A697930468
:1012E0000724B3D4970263E79900B384994023207D
:1012F0009900E1BD83274A00BE99C5BF23A03501EF
:10130000E9B5978700209387A777DC43BE94C9BDD2
:10131000978700209387C776DC43998F3E95E9BD78
:10132000A1452285EFA07146A305A402978700205E
:1013300093878770DC5B81EF7D55F2406244D24435
:101340004249B249224A924A024B0561828089454C
:1013500015458297D5B7B3049740AA941DBF83A7BC
:101360004A00BE9435BF31CD01116C0022CC06CEAF
:101370002A84853B29C5FD576308F502978600201E
:101380009386866B945632479787002083C7376CC5
:1013900091C28583636EF700B307F7403EC6B2453E
:1013A00003459402EFD0D027F24062440561828069
:1013B000978600209386C66CD4423697F1BF0D3ACB
:1013C000E5B782807971979700209387A78326D20B
:1013D00083A4C70906D622D44AD04ECE0947A5C059
:1013E0009796002083C6F69795470D476389F604C4
:1013F0009797002093878796DC472A8989CBEFF05F
:10140000411DEFE091029797002023AF0794FD590B
:101410006C002685F93105ED170500001305858D53
:10142000EFF0CFB2A14717970020230BF7929797C1
:101430000020938727959C430947F8D30D47B25066
:10144000225492540259F2493A854561828063746C
:1014500035013244AA898440C5FCFD571307F00FBB
:10146000E38FF9FC914763F487029307B4FF2320CD
:10147000F90017970020232FF7820147E9F3978798
:1014800000209387E75FDC432320F9004DBF978757
:1014900000209387E75EDC43ED17A297C9BF7971FF
:1014A00026D206D622D44AD04ECE52CC56CA5AC8DC
:1014B0005EC68347550303447513AA843E94137490
:1014C000F40F9307400263F687001304B4FD13740E
:1014D000F40F03AA841383AAC413A38B8412228655
:1014E0005285D685EFB0D03D058905E503CBD412F2
:1014F00001498149337B6403930B50024A8652852C
:10150000D685EFB0F03B058915C563916903137467
:10151000F90F238B8412B250225492540259F2498B
:10152000624AD24A424BB24B456182808509E20948
:1015300093D989410509E31379FDE1BF8327850923
:1015400003560504797193D60701BD8EC206C18288
:10155000358E1357764093575640898B058B5D8F98
:1015600093573640918B5D8F93571640A18B5D8FBB
:1015700093171600C18B5D8F9317360093F7070200
:101580005D8F931756009355860093F707041E0648
:101590005D8F1376F60F518F93D7554013D6354094
:1015A000118A898BD18F13D67540D18F13D61540F0
:1015B000218AD18F13961500418AD18F1396350059
:1015C00013760602D18F13965500137606049E05F6
:1015D000D18F93F5F50FCD8FA20745465D8F330769
:1015E000C70222D42A8426D252CC56CA032A841394
:1015F000832AC4135AC806D63697420741839357A5
:101600007740135557400989858BC98F135537404B
:101610001189C98F135517402189C98F13151700D8
:101620004189C98F1315370013750502C98F13152A
:10163000570093558700137505041E07C98F13774C
:10164000F70FD98F13D5354013D755401189098B22
:10165000498F13D57540498F13D515402189498F7E
:10166000139515004189498F1395350013750502AF
:10167000498F13955500137505049E05498F93F501
:10168000F50F4D8F2207D98FB387C7024AD04ECEB0
:101690005EC662C4B697C207C18313D7774013D51D
:1016A00057400989058B498F13D537401189498FD8
:1016B00013D517402189498F139517004189498F08
:1016C0001395370013750502498F1395570093D56D
:1016D0008700137505049E07498F93F7F70FD98F7D
:1016E00013D5354013D755401189098B498F13D530
:1016F0007540498F13D515402189498F13951500E1
:101700004189498F1395350013750502498F13954B
:101710005500137505049E05498F93F5F50F4D8F00
:101720002207D98FB387C702130650025285D68588
:10173000B697BD8E93940601C18033F6C402137B25
:10174000F60FEFB0F01705891DE98347D412014960
:101750008149B3849702130C5002C1804A86528596
:10176000D685EFB0F0150589937BF90F11C5638617
:101770003403850993F9F90F0509E31189FF230B58
:101780006413B250225492540259F249624AD24A26
:10179000424BB24B224C456182805E8BCDB7832792
:1017A000C50803568508797193D60701BD8EC20618
:1017B000C182358E1357764093575640898B058BDF
:1017C0005D8F93573640918B5D8F93571640A18B59
:1017D0005D8F93171600C18B5D8F9317360093F7BB
:1017E00007025D8F931756009355860093F7070401
:1017F0001E065D8F1376F60F518F93D7554013D683
:101800003540118A898BD18F13D67540D18F13D66D
:101810001540218AD18F13961500418AD18F1396D6
:10182000350013760602D18F139655001376060401
:101830009E05D18F93F5F50FCD8FA20745465D8F9D
:101840003307C70222D42A8426D252CC56CA032A8E
:10185000040A832A440A5AC806D6369742074183A7
:1018600093577740135557400989858BC98F135576
:1018700037401189C98F135517402189C98F131516
:1018800017004189C98F1315370013750502C98FD9
:101890001315570093558700137505041E07C98F4C
:1018A0001377F70FD98F13D5354013D755401189CA
:1018B000098B498F13D57540498F13D51540218960
:1018C000498F139515004189498F1395350013757C
:1018D0000502498F13955500137505049E05498F20
:1018E00093F5F50F4D8F2207D98FB387C7024AD0E2
:1018F0004ECE5EC662C4B697C207C18313D7774087
:1019000013D557400989058B498F13D53740118965
:10191000498F13D517402189498F139517004189A5
:10192000498F1395370013750502498F139557009A
:1019300093D58700137505049E07498F93F7F70F1A
:10194000D98F13D5354013D755401189098B498F4D
:1019500013D57540498F13D515402189498F1395AB
:1019600015004189498F1395350013750502498F7C
:1019700013955500137505049E05498F93F5F50FD2
:101980004D8F2207D98FB387C702130650025285A5
:10199000D685B697BD8E93940601C18033F6C402F6
:1019A000137BF60FEFB0C07105891DE9834714085A
:1019B00001498149B3849702130C5002C1804A86C1
:1019C0005285D685EFB0C06F0589937BF90F11C59D
:1019D00063863403850993F9F90F0509E31189FF3B
:1019E000230F6407B250225492540259F249624ABA
:1019F000D24A424BB24B224C456182805E8BCDB7BE
:101A00008327450903568508797193D60701BD8E52
:101A1000C206C182358E1357764093575640898B44
:101A2000058B5D8F93573640918B5D8F9357164092
:101A3000A18B5D8F93171600C18B5D8F93173600B6
:101A400093F707025D8F931756009355860093F71F
:101A500007041E065D8F1376F60F518F93D75540FE
:101A600013D63540118A898BD18F13D67540D18F0B
:101A700013D61540218AD18F13961500418AD18F34
:101A80001396350013760602D18F13965500137600
:101A900006049E05D18F93F5F50FCD8FA20745461D
:101AA0005D8F3307C70222D42A8426D252CC56CA6D
:101AB000032A040B832A440B5AC806D636974207DA
:101AC000418393577740135557400989858BC98FB8
:101AD000135537401189C98F135517402189C98F74
:101AE000131517004189C98F1315370013750502A7
:101AF000C98F1315570093558700137505041E07EA
:101B0000C98F1377F70FD98F13D5354013D75540A9
:101B10001189098B498F13D57540498F13D515400D
:101B20002189498F139515004189498F13953500F7
:101B300013750502498F13955500137505049E050D
:101B4000498F93F5F50F4D8F2207D98FB387C702C1
:101B50004AD04ECE5EC662C4B697C207C18313D7C1
:101B6000774013D557400989058B498F13D53740E6
:101B70001189498F13D517402189498F1395170073
:101B80004189498F1395370013750502498F1395C5
:101B9000570093D58700137505049E07498F93F767
:101BA000F70FD98F13D5354013D755401189098BBD
:101BB000498F13D57540498F13D515402189498F19
:101BC000139515004189498F13953500137505024A
:101BD000498F13955500137505049E05498F93F59C
:101BE000F50F4D8F2207D98FB387C7021306500216
:101BF0005285D685B697BD8E93940601C18033F683
:101C0000C402137BF60FEFB0A04B05891DE9834793
:101C1000F40801498149B3849702130C5002C18032
:101C20004A865285D685EFB0A0490589937BF90F86
:101C300011C563863403850993F9F90F0509E3118A
:101C400089FF230F6407B250225492540259F2497B
:101C5000624AD24A424BB24B224C456182805E8B33
:101C6000CDB70111978700209387C7F922CC03A431
:101C7000C70C26CA4AC84EC606CEAA841309250038
:101C8000854915C083C7140003473400858B63045E
:101C9000F700405CFDB71946930544004A85EFE024
:101CA000AFF2E31835FF2285F2406244D244424944
:101CB000B24905618280411197870020938787F49C
:101CC00022C403A4C70C26C24AC006C6930425003A
:101CD000054901E82285B24022449244024941016B
:101CE0008280A6851305A402EFB0F10EE30425FF60
:101CF000405CC5B74111978700209387A7F022C4A5
:101D000003A4C70C26C24AC006C693042500054991
:101D100001E82285B2402244924402494101828076
:101D2000A6851305A401EFB0110BE30425FF405C69
:101D3000C5B7011122CC604126CA4AC84EC652C45A
:101D400006CEAA841D4A130965058549BC4463640F
:101D5000F400054581A803C7D40083474400631BF2
:101D6000470503C784026304F7000040C5B7034773
:101D7000540083C75405E31AF7FE1946CA851305B4
:101D80006400EFE06FE4E31235FF0347C40083C74C
:101D90009402E31CF7FC0357E40083D7A402E31684
:101DA000F7FC0145F2406244D2444249B249224A1A
:101DB00005618280E31BF7FA0347540083C754058B
:101DC000E315F7FA1946CA8513056400EFE0CFDF83
:101DD000E31D35F9F9B7011197870020938787E252
:101DE00022CC03A4470C26CA06CE2AC42EC685449C
:101DF00019E40145F2406244D24405618280834780
:101E0000910003471400858B6304F7000044CDB7AD
:101E100019469305A10013052400EFE0EFDAE3175C
:101E200095FE0545C1BF97860020938626F29C4209
:101E30001307001098C323A00700034715000348A9
:101E400025002207420842970348050042970348AD
:101E500035006208429798D703475500034865004C
:101E600022074208429703484500429703487500FD
:101E700062084297D8D7034795000348A500220778
:101E8000420842970348850042970348B50062081C
:101E9000429798DB0347D5000348E5002207420834
:101EA00042970348C5000345F500429762052A970B
:101EB000D8DB03C7150003C52500220742052A9772
:101EC00003C505002A9703C5350062052A9798CFF8
:101ED00003C7550003C56500220742052A9703C5BD
:101EE00045002A9703C5750062052A97D8CF03C716
:101EF000950003C5A500220742052A9703C5850062
:101F00002A9703C5B50062052A9798D303C7D50061
:101F100003C5E500220742052A9703C5C50083C50E
:101F2000F5002A97E2052E97D8D3D843759BD8C3DE
:101F3000D84313671700D8C398431367170098C393
:101F400098425C43858BD9E31C4F01452300F60082
:101F50009C429C4FA183A300F6009C429C4FC183EE
:101F60002301F6009C429C4FE183A301F6009C42B2
:101F7000D84F2302E600D84F2183A302E600D84FB2
:101F800041832303E600D84F6183A303E6009853FF
:101F90002304E60098532183A304E6009853418369
:101FA0002305E60098536183A305E600D853230672
:101FB000E600D8532183A306E600D85341832307C4
:101FC000E600DC53E183A307F600828001008DBFA9
:101FD00097870020938707DB98431605136505084C
:101FE0003C4B93E707083CCB97870020938707D6A5
:101FF0009C4303A7450E88C398CB03A7850E0145D4
:10200000D8CB03A7C50B98CF03A7050CD8CF03A740
:10201000450C98D303A7850CD8D303A7C50C98D734
:1020200003A7050DD8D703A7450D98DB03A7850D9A
:10203000D8DB03A7C50D98C703A7050ED8C79843DB
:102040001367070498C3828097870020938787D3FC
:1020500098431605136505083C4B93E707083CCBEE
:1020600097870020938787CE9C4303A7C50E88C31C
:1020700098CB03A7050F0145D8CB03A7C50B98CF75
:1020800003A7050CD8CF03A7450C98D303A7850C4D
:10209000D8D303A7C50C98D703A7050DD8D703A796
:1020A000450D98DB03A7850DD8DB03A7C50D98C7A1
:1020B00003A7050ED8C798431367070498C393076F
:1020C00000F817870020230EF7C88280978600202B
:1020D000938606C89842411126C21C5F06C622C4D8
:1020E0009983858BB684CDC3930700061CDF978741
:1020F000002083C7A7C693F70704178400201304A2
:10210000E4C59DC397870020938747929C4382979D
:102110009787002023A2A7C68347040093F7F70BF5
:1021200017870020230CF7C28347040093F70702A8
:102130009DC383470400A16693F7F70D178700201E
:10214000230EF7C0178700201307C7C35C48184346
:10215000860714C77CD78347440093F707048DE7AD
:10216000854717870020A30DF7BE97870020938728
:1021700067C19C43096798C7130700FC9786002036
:102180002380E6BE1848F8D398401C5F9183858B66
:1021900081CBC1471CDF8547978600202382F6BC90
:1021A0001C5F9D83858B89CB930700081CDF8547C7
:1021B000178700202306F7BA97870020938707B96F
:1021C0009C43D8430583058B19C7D843759BD8C357
:1021D000D843799BD8C3B2402244924441018280C3
:1021E00097870020938707BA9443978700209387A7
:1021F000E7B603C70700058B09EB03C71700058B7C
:1022000009E7F8527DF783C7570097870020A38915
:1022100007B4828017880020130888B303270800BA
:102220001C5F9583858BBDEB09C61C5BBD832300BA
:10223000F60085CA83270800985B46079357670115
:102240006356070093E707C0C207C18303970600E0
:10225000C207C18709C7BA970947B3C7E7022390E6
:10226000F60095C18347150099CF3E9583479500A9
:102270000547194593F6F7066393E602E207E187FF
:10228000394563CE07008327080001459C5FED8335
:102290008D8B17870020A308F7AC828005458280CC
:1022A000411122C406C6178400201304A4AD1840AF
:1022B0003DE5AE877453FDFE3E85B28597870020CD
:1022C000238F07A8EFD0912897870020938747A8EE
:1022D0009C43B70680009843558F98C3D857719B8D
:1022E000D8D797870020A38D07A697870020A387BC
:1022F00007A61C40094798C31440178700201307FE
:10230000E7A583472700858B99E783473700858BAF
:1023100099E3FC52FDF7B2402244410182808D478F
:102320006310F50297870020938787A29C43B70626
:1023300080009843558F98C3D857719BD8D76DBFED
:102340008547E31BF5FA5447F977FD17F58F5CC70E
:102350000F1000001C40096798C7130700F8178684
:102360000020230FE69E178700201307679E104367
:10237000184231830D8B11E713076019F8D3D4C7C6
:10238000A5BF1842094631830D8B6315C70013079B
:10239000E043EDB71307E01BD5B75D7152DC178A38
:1023A0000020130AEA9A03270A0086C6A2C4A6C21E
:1023B000CAC04EDE1C43978900209389E9A1178982
:1023C00000201309299C93F7F7E793E707081CC33C
:1023D00083A609003707CEFF7D179C4613068002AF
:1023E0002A84F98F9CC6832709002800AE8423A87D
:1023F000070493051008EFD0BFF23545EFD07155B3
:1024000083270A009376F41F3706330023A40700BE
:10241000984B370FFCFF4E881367F70398CBF84FA4
:10242000CA88130510F8137707E0558FF8CF984343
:10243000F576FD16758F98C317870020A3020792C3
:102440008326090017870020A30A0790054798C232
:102450009843D285B70204001377F7E798C39843EF
:102460009303802511491377F7E71367071098C383
:1024700003A709007D1F85491C47930F8002D18F58
:102480001CC793079005BCCA01473400135337009B
:1024900026938347030013767700B3D7C740858B15
:1024A000DDCF9C41832E0800239C07042390070660
:1024B00003AECE02137EDEFF23A6CE0383AE07005B
:1024C000137EF70793FE0EF833EECE0123A0C7016B
:1024D00003AE4702336E5E0023A2C70383AE08003B
:1024E000014E23A27E0603DA070663074E0303AEFE
:1024F0000703038A0600135EFE00620E135E8E4120
:102500006358CA0103AE0703135EFE002380C601B1
:1025100003DE0706137EFE0F03AA4E0663060A00BB
:1025200003DA8705E37F49FB03AE4702337EEE0102
:1025300023A2C70383870600635CF400034E0300F5
:102540003396C9001346F6FF3376C6012300C30055
:102550003E8663D3A7002A86131586016185050789
:102560001377F70F8506E313F7F3B6402644964436
:102570000649F259625A61618280978700209387E9
:1025800067809C43D8479316170163D50602984786
:102590009316170163D006027D57B8D7177700202E
:1025A00013078744584F05079776002023ACE6446D
:1025B000116798C798470D83058B1DC317770020B7
:1025C0000347E77913671700977600202389E67899
:1025D000130700F8977600202384E678214798C7F0
:1025E0009847058B09CF1777002003473777136784
:1025F000170097760020A383E676054798C798478B
:102600000983058B09E798470583058B35C3177741
:102610000020A30707749847177600201306067456
:10262000977600209386C6720983058B9442B28503
:1026300063000710984231830D8B65EBB04BD85186
:1026400013760602034717005DCA69EF1307D0052A
:10265000D8CF03C705001367170017760020230F94
:10266000E66E114798C7D856719B13671700D8D6E6
:1026700098479316370163D606029776002083C6E3
:102680002660C18A177700201307C757C5CE0347B6
:10269000C70713670702977600202383E65E056766
:1026A00098C798479316270163D106021777002031
:1026B0000347076B620761876357070005479776F3
:1026C0000020238FE668096798C79847931607018B
:1026D00063D606029776002083C6965A858A1777B6
:1026E000002013072752ADCE0347D70713672700F3
:1026F00097760020A386E658216798C7828039D74D
:1027000005466315C7001307100699B709466315F8
:10271000C700130750062DBF0D466315C7001307EA
:1027200090063DB71307B00625B71307C0060DB7CF
:10273000034736001367170017760020A301E662EF
:1027400009470DB78346C7070946BD8A6388C60097
:102750000347C7078D463D8BE313D7F4114725BFC9
:102760008346D707918AC9DA0347D70713678700DB
:1027700041B7977700209387E7609C439847977607
:10278000002023A9E65E9447177700201307075D12
:102790008D82858A8DC28346270093E616001776C0
:1027A0000020230ED65A930600F81776002023093E
:1027B000D65AA14694C79447858A99CA834617007A
:1027C00093E6160017760020A30AD658854694C7CC
:1027D00094478982858A89E694478582858AA1CE35
:1027E00097760020A38E065694471776002013068E
:1027F000265610428982858AD5C21442B1828D8ABA
:10280000D9EAAC4B545393F5050283C61600B1CDFB
:10281000C1E29306D005D4CF8346070093E61600A5
:1028200097750020238CD552914694C75456F19A3F
:1028300093E6160054D6944713962601635F06006C
:10284000034747006207618763570700054797768C
:1028500000202387E650096798C798479316070119
:1028600063D40600216798C78280C5D685456395E5
:10287000B6009306100645B789456395B6009306E2
:10288000500651BF8D456395B6009306900661B71B
:102890009306B00649B79306C006B5BF8346370016
:1028A00093E6160097750020A38BD54A8946B5BFDD
:1028B000977700209387074D98438567938707771D
:1028C0007CD397770020938727519C4383A60709E1
:1028D000139656006358060083A6070913966600F0
:1028E000634406007453FDF28280411122C4B7474D
:1028F000024006C603A4C72023A607200F1000002D
:1029000011C199E5B747024023A6872001457DA85C
:1029100093073500C207C183F19BC207C183130728
:1029200040036369F702177700201307A753084392
:10293000177700201307875214436392A602177774
:1029400000201307670F585B55DFC207DD8D054573
:1029500002974DBF1777002013078750C9BF035751
:1029600065002DEB035745006366F706B306F74095
:102970002146637CD60203280500938687001D8FBD
:10298000AA96611717760020035666062392E60082
:1029900023A006012393060014C12312F500130798
:1029A00086FF977600202394E6042313B5009775DD
:1029B000002083D5C503B387F5401777002023187F
:1029C000F702B747024023A687202105B2402244E0
:1029D00041018280084195B7B747024003A8C7204C
:1029E00023A607200F10000001E523A607218280FF
:1029F000977700209387074703AE0700977700205B
:102A00009387C74503A307008146F28763F0670CED
:102A100083A80700636FF50A63EDA80A1387870090
:102A20006366E50A03D66700216705076317E600BA
:102A300003C741910507238AE1909775002093858C
:102A4000A5FA03D6470003D7650023930700329702
:102A50004207418317750020231BE5F8638AC703EB
:102A6000177500201305C53F08416303F50203D520
:102A7000660019ED83D7460023A0160121073E9674
:102A800021062392C600977700202392E7F6B687A7
:102A90009843630D6702977600209386663C9442C4
:102AA0006306D7028356670095E283D64700035634
:102AB00047001843A106B2962392D70098C383D744
:102AC0006500A107177700202313F7F2B7470240EC
:102AD00029BFBE86C6871DBF97770020938787389A
:102AE00097760020938686379C4390422A87B305C9
:102AF000B5406314F6003A8529A8938687009C4365
:102B0000E369D7FEE377F7FE2E85E3E4D5FEE3F233
:102B1000F5FE8280938741999C43177700200347F5
:102B2000370E2A86050781463E8583D707006388CE
:102B3000C700850693076500E3E8E6FE014582804D
:102B40009387C198984319E3014615A81C4703D8F9
:102B5000A700636B050183584700B38608016355DE
:102B6000D5008146639416011843F1BF3E86C10724
:102B700003D3A7FF6317A30099C1239005013285F2
:102B800082808506C206C182F1BF4111977700207D
:102B90009387470726C2A44F06C622C44AC085476A
:102BA000C1CC03A4C40A854741C88347A4001307C6
:102BB000700A639AE70803475400834794009776A6
:102BC00000209386E6EBD042B387E7021777002018
:102BD000035787EBB387E702130700329387071980
:102BE000B3D7E70203A74409B6843E973A896364E2
:102BF000F7006364C7003309C740977700209387C5
:102C0000E7E29C43232025018297B307A940637420
:102C1000A900D840BA9781E79307F00F31A803477E
:102C200054009306204E3307D702E3F7E7FE9307DD
:102C300080FA2305F4008147B240224492440249BD
:102C40003E85410182801307800AE397E7FC97776E
:102C500000209387A7DD9C4382972A893545EFD0D2
:102C6000414FAD4717770020A30DF70E03475400DF
:102C70008347940017760020130686E05042B387FE
:102C8000E70217770020035727E0B387E70213070F
:102C9000003293870719B3D7E70203A744093E9789
:102CA000BA866364F7006364C700B306C740E315E0
:102CB000D9F6177502001305858BEFD03FA99777DA
:102CC00000209387270C9C430947F8D7B1B7397187
:102CD00052D4177A0020130A6A0883278A0106DE75
:102CE00022DC26DA4AD84ED656D25AD05ECE62CCF4
:102CF00066CA6AC86EC6139707016357072097779D
:102D00000020938727F0A04F0329C40A8347990026
:102D10000327C9009207330CF70003452C00314705
:102D200005053305E50203574C003A9542054181FC
:102D3000EFD04FC8AA8B6303051E130DC5002324D3
:102D4000A50103462C00B145F97A3306B6022313D8
:102D50000C008144977900209389C902177B0020D9
:102D6000130B0BFF977C0020938C0C07930D9005A1
:102D7000FD1A6A962326CC00034679009307D007F4
:102D800003A509003306F60285671CC5B7073300A3
:102D9000060630D103260B000C4293F5F5E70CC272
:102DA0000C4293F5F5E793E505100CC203A80C005F
:102DB00083258800DD8D2324B8008325090023287E
:102DC000B5050CC683556C000326CC002E96232433
:102DD000CD0003461C00930550022696A301CD00AA
:102DE00003450408014697770020A38907F6EFD032
:102DF000810B03A609004846B37555014CC60F1058
:102E0000000003A60900896503280B000CC6930582
:102E100000F8977700202385B7F483250800B18157
:102E20008D89F1E1930560196CD248C6977700202F
:102E3000A38807F2854597770020A38107F20CC28B
:102E4000EFF00FBAEFD0A12803461A00058A4DCA49
:102E5000EA852285EF70627B15ED03465D004DC269
:102E600083556C0003554C00B29563DBA508834580
:102E700024012848918D8905AA9503258D00EFD05E
:102E80008FC323020D0083455D0003566C002E9610
:102E90002313CC0083A50900310DB0517DFE0346FC
:102EA0002C00850493F4F40FE3E8C4EC034784009A
:102EB0005E85A381EB0083470C00A3820B00238374
:102EC000CB002382FB006254F250D2544259B259D3
:102ED000225A925A025BF24B624CD24C424DB24D96
:102EE00021616F60810F832508000948B1818D89B8
:102EF000639505019305E04305BF9305E01B2DB7DE
:102F00007D562302CD0079B797770020938787E716
:102F10009C43FC5781C78547238CF18AF250625449
:102F2000D2544259B259225A925A025BF24B624C25
:102F3000D24C424DB24D216182800000197106C20F
:102F400012C416C61AC81ECA22CC26CE2AD02ED229
:102F500032D436D63AD83EDA42DC46DECAC0CEC2D9
:102F6000D2C4D6C6DAC8DECAE2CCE6CEEAD0EED209
:102F7000F2D4F6D6FAD8FEDA938541888841E70084
:102F8000050092402242B2424243D2436244F2449C
:102F9000025592552256B2564257D2576258F258AD
:102FA00006499649264AB64A464BD64B664CF64CDD
:102FB000065D965D265EB65E465FD65F096173006C
:102FC00020300000EFD06FF9730000000000000017
:102FD0009382818B0383020023800200630F03002E
:102FE000F32510342EC0970500009385E5FD7390FE
:102FF0001534EFF00FF87300203086DCEFF0EFD7D8
:08300000E65082800000000090
:1030080001A097E1FF1F9381E18C17D100201301E4
:10301800E1FE179502001305258797D5FF1F9385B5
:10302800E5FD1386018663FAC5008322050023A007
:10303800550011059105E3EAC5FE138501869775CC
:103048000020938565E26377B5002320050011050C
:10305800E36DB5FEFD42739002BC8D4273904280D1
:10306800930280087390023097D2FFFF938242F94F
:1030780093E2320073905230EF200048972200000C
:103088009382221873901234730020304111B727AD
:10309800014006C693870740631CF5008545130564
:1030A8000020A123814513050020B240410135AB22
:1030B800B737014093870780631AF50085451305E4
:1030C80000402523814513050040C5B7B2404101A2
:1030D80082805C413707F1E01307F7EF944D7D8F4D
:1030E8009C41D58FD44DD58FD441A206D58FD98F89
:1030F8005CC11C4537F7F1FF1307D77FD4457D8F97
:103108009C49D58F94458606D58FD98F1CC55C55AB
:10311800370710FF7D177D8F83C74501FD1793F78C
:10312800F70FD207D98F5CD582801C4589C593E7F4
:1031380017001CC58280F99BEDBF1C4591C5370758
:103148005000D98F1CC582803707B0FF7D17F98FD3
:10315800D5BFA54763F7B7048D47138765FF3307C6
:10316800F7020328C5009D47B397E70093C7F7FF09
:10317800B3F70701B396E600DD8E54C5994763E3BC
:10318800C70495477D163306F6025859FD47B3978D
:10319800C70093C7F7FFF98F3396C5005D8E50D9E6
:1031A80082800D473387E502032805019D47B397C1
:1031B800E70093C7F7FFB3F70701B396E600DD8E84
:1031C80014C96DBFB14763E2C70295476516330658
:1031D800F6021859FD47B397C70093C7F7FFF98F51
:1031E8003396C5005D8E10D9828095474D163306FB
:1031F800F6025855FD47B397C70093C7F7FFF98FF5
:10320800B395C500DD8D4CD5828068454205418166
:103218008280B727014093870740984711C5B706B2
:103228008000558F98C78280B70680FFFD16758F7E
:10323800D5BF08416D8D3335A00082805C4191C5B2
:1032480037070004D98F5CC18280370700FC7D17DF
:10325800F98FD5BFB707014023AAA7408280B706D8
:103268006745B7270240938636123797EFCDD4C308
:103278001307B79AD8C3D4D3D8D38280372702404C
:103288001C4BA166D58F1CCB8280B7270240984B78
:10329800B7060200137505F0558F98CBC8CB984B2D
:1032A8001367070498CBD847058B75FF984B817631
:1032B800FD16758F98CB8280372702401C4BC1665C
:1032C800137505F0D58F1CCB5C47858BF5FF372729
:1032D80002405C47898BF5FF372702401306001030
:1032E800B386F50003A80600B306F50023A006017F
:1032F8005447898AF5FE9107E394C7FE1C4BB7062D
:103308002000D58F1CCBB7270240D847058B75FF07
:10331800984BC176FD16758F98CB828037F7FF1FC3
:103328008327877E93D687002300F500A300D50066
:1033380093D60701E1832301D500A301F500832774
:10334800C77E2302F500A183A302F50082809C4575
:1033580013F7070113F8F70001C7D8413368E800ED
:1033680083D5050013F7F50F39C318418146854EFB
:103378003D4F930F800293028004214E3396DE0066
:10338800B3F8C500631116039398260033131F0181
:103398001343F3FF3377E300B318180133E7E8006A
:1033A800639FF70550C98506E39AC6FD18C1130740
:1033B800F00F6375B70454412146854E3D4F930F76
:1033C800800293028004414EB398CE0033F7150172
:1033D8006392E8021317260001173313EF00134313
:1033E800F3FFB376D3003317E800D98E639DF70156
:1033F800232A15010506E319C6FD54C18280E3940A
:1034080057FA10C94DB7E39757FE23281501DDB7C2
:103418000CC982804CC98280377700401C4309C59B
:1034280093E707101CC3828093F7F7EFE5BFB71641
:103438000240DC4251777D17F98F5D8DC8C28280CA
:10344800B717024023800702238007020547630657
:10345800E50011476306E50082802380A702828089
:1034680015472380E7028280371702405C5309C55D
:1034780093E717005CD38280F99BEDBF37170240B2
:103488001C535D8D08D3828001C9371702401C5335
:10349800A166D58F1CD38280B71602409C526177F3
:1034A8007D17F98F9CD28280371702405C43914682
:1034B800B18B638AD706A146638CD706B7177A0003
:1034C800938707201CC1371602405C4297D6FF1F1E
:1034D8009386C6B29183BD8BB69703C707001C417C
:1034E800B3D7E7005CC1584221831D8B3697034749
:1034F800070033D7E70018C558422D831D8BBA96AD
:1035080003C7060097D6FF1F9386C6BCB3D7E7004C
:103518005CC5584239830D8B369703470700B3D7EC
:10352800E7021CC98280B757E8019387078059BF13
:103538005C435843C166C983BD8B758F8907C546EF
:103548006393D700C94701EF374702400327078035
:10355800418B15CB37177A001307072029A8B71610
:103568000240D8423706C000718F6319C700372759
:10357800F40013070740B387E702A9B7D8429316A8
:10358800E700E3D906FC37173D0013070790E5B7B6
:1035980099C5371702405C4B5D8D48CB8280B717C1
:1035A8000240D84B1345F5FF798DC8CB828099C569
:1035B800371702401C4F5D8D08CF8280B717024035
:1035C800984F1345F5FF798D88CF828099C53717B5
:1035D80002405C4F5D8D48CF8280B7170240D84FBC
:1035E8001345F5FF798DC8CF828099C537170240FA
:1035F8005C475D8D48C78280B7170240D84713459E
:10360800F5FF798DC8C78280B7170240D843B7063F
:1036180000F0FD16758FD8C3D8437205598DC8C3FD
:103628008280B737004003D747801367070123928A
:10363800E78082803737004083574780C207C183BD
:10364800BD9BC207C1832312F780828037360040B2
:10365800835686810357868142074183E31AD7FE42
:10366800373600408356C6818357C681C207C18357
:10367800E39AD7FEB735004003D6858103D5858107
:1036880042054181E31AC5FE630CA700B736004026
:1036980003D7C68183D7C681C207C183E39AE7FEF1
:1036A80042055D8D8280011106CE2AC69D3F3245B6
:1036B800B7370040F240135705014205239CE780C5
:1036C8004181239EA7800561B5B7011106CE2AC6A0
:1036D800893F3245B7370040F240135705013D8B0B
:1036E80042052394E78041812396A780056199B715
:1036F800373700408357478093F70702E5DF82801A
:10370800B737004003D747801345F5FF798D2392DB
:10371800A7808280F5B75D719387C180A2C480437A
:10372800CAC04EDE52DC56DA3799E4FF916AB7799F
:103738001B0037CA0D005AD81309098C138B0AE8E5
:1037480093890974130A0ABA334B6403A6C25ED676
:1037580062D466D26AD06ECE86C6B727024003C747
:103768009704AA84114D1377070FA384E70403C7AE
:103778009704B72C0240916D1377F70FA384E704E1
:10378800E17BFD1A094C33492403B3493403334A16
:10379800440303C7FC0413672700A387EC0403D77B
:1037A800CC043367B7012396EC0403D7CC04336702
:1037B8007701420741832396EC0403D7CC044207E0
:1037C8004187E35C07FE03D7CC0403C7FC041377E7
:1037D800D70FA387EC0403C7FC0413672700A3874C
:1037E800EC0403D7CC043367B7012396EC0403D762
:1037F800CC0433677701420741832396EC04B9353B
:10380800AA873EC6A135B247E30DF5FE83D7CC049F
:10381800B3E7B7012396FC0483D7CC04C207C1875A
:10382800E3CC07FE03D7CC0442074187E35C07FEDD
:1038380003D7CC0483C7EC0433F7EA00B387FA0252
:103848003E97330767416354E900634A37037D1D98
:10385800137DFD0F63050D0293171700B3C74703C8
:10386800635DE000850783D66C03B3C78703B6970B
:10387800C207C183239BFC0229BFFD17EDB7B727F9
:10388800024003C79704A1661377070FA384E704D0
:1038980003C7970413672700A384E70403C7F70443
:1038A8001377D70FA387E70403C7F7041367270025
:1038B800A387E70403D7C704558F2396E70403D7E4
:1038C800C7049166558F2396E704B726024003D7AD
:1038D800C6049387C60242074187E35A07FE03D707
:1038E800C60403C7F6041377D70FA387E60403C7F4
:1038F800F60413672700A387E60403D7C604A16666
:10390800558F2390E70203D707029166558F2390BE
:10391800E7022D3B2A891D3BE30F25FFB72702400D
:1039280003D7C7049166558F2396E70437270240CB
:103938008357C704C207C187E3CC07FEB7260240F6
:1039480003D7C60442074187E35C07FE03D7C604D2
:1039580083C6E60437490F009167FD171309092448
:10396800334924037D8F2566130606CAB387D70219
:103978003E979307803E3344F402B306F902930757
:10398800800C158F9306C02EB306D402B3C6C602A8
:10399800B307F702B3C7D702635AE0188507094788
:1039A800B3C7E70237270240835667039607B697DF
:1039B800C207C183231BF70283479704A16693F7C5
:1039C800070FA304F70483479704C58F93F7F70FEE
:1039D800A304F7048347F70493F7D70FA307F70463
:1039E8008347F70493E72700A307F7048357C7041F
:1039F800D58F2316F7048357C7049166D58F2316EE
:103A0800F704B726024003D7C6049387C6024207C5
:103A18004187E35A07FE03D7C60403C7F6041377A2
:103A2800D70FA387E60403C7F60413672700A38705
:103A3800E60403D7C604A166558F2390E70203D78F
:103A480007029166558F2390E7020931AA89FD3E46
:103A5800E30F35FFB727024003D7C7049166558F98
:103A68002396E704372702408357C704C207C18754
:103A7800E3CC07FEB726024003D7C60442074187B6
:103A8800E35C07FE03C7F6049167FD171377D70FAA
:103A9800A387E60403D7C60483C6E6047D8FB387ED
:103AA800D7023E978967938707F4B39797003389BE
:103AB8002703930700103349F9029307800C0E0976
:103AC800330927410547B31497001147B3C4E402EB
:103AD8002567130707CA338484029304C02E33046E
:103AE80094023344E402B307F902B3C7870263516F
:103AF800200585070947B640264496440649F259E9
:103B0800625AD25A425BB25B225C925C025DF24D11
:103B1800B3C7E70237270240835667039607B6976D
:103B2800C207C183231BF70261618280FD1785BD2F
:103B3800FD17C9B78357050037370140130707C07A
:103B4800C207C1836304E502370700406300E5024A
:103B580013070740630CE5003717004093060780FA
:103B68006306D500130707C06317E50003D72500D0
:103B780093F7F7F8D98F03D7650093F7F7CFC20704
:103B8800C183D98F2310F50083D745002316F5028A
:103B980083D705002314F502B7370140938707C080
:103BA8006316F50083C785002318F5028547231A95
:103BB800F50082808357050091C593E7170023100D
:103BC800F5008280C207C183F99BC207C183C5BFC4
:103BD8008357C50009C6DD8D2316B500828093C5BD
:103BE800F5FFFD8DD5BF93C5F5FFC205C18123182B
:103BF800B500828083560501F577FD17F58F83D6CA
:103C08006500397122DC06DED58F03D7C50023187D
:103C1800F5008356C500FD779387379FF58F83D6C8
:103C280045002A842EC6D58F83D68500D58F83D6A6
:103C3800A500D58F2316F50083574501C207C18318
:103C480093F7F7CFD98F231AF5006808B138B7472B
:103C5800014093870780B245631EF404A257835638
:103C6800C4006547B387E702C206C186984163D599
:103C7800060406070356C4004206B3D7E702130733
:103C880040064186B3D6E702B3F7E70292066357C8
:103C980006028E0793872703B3D7E70213F7770047
:103CA800B367D700C207C1832314F400F2506254EB
:103CB80021618280925765B70A076DBF9207938783
:103CC8002703B3D7E702BD8BD58FE9BF81C98357D7
:103CD800C5000967D98F2316F50082800357C500F0
:103CE800F977FD17F98FC5BF93F5F51F2312B500B6
:103CF8008280035505006D8D3335A000828093873F
:103D0800C1809C4337177A0013070720B3D7E7020F
:103D180093F7F70F2381F1861307803EB387E702F5
:103D28002390F1868280B7F700E0D8438146799BDB
:103D3800D8C303C721863306A70290CBD4CB9843B8
:103D48001367070198C398431367170298C3D843AA
:103D5800058B75DF9843799B98C38280B7F700E09D
:103D6800D8438146799BD8C303D701863306A70277
:103D780090CBD4CB98431367070198C39843136734
:103D8800170298C3D843058B75DF9843799B98C36E
:103D98008280797122D42A8411658545110506D659
:103DA800EFF0FF80930700202312F1003715014040
:103DB8008D473EC44C00E147130505803EC6EFF031
:103DC8000FD922C837440140B70708000C0813056B
:103DD80004803ECC02CA231E0100293D130504803D
:103DE8008545ED35B250225445618280011126CABD
:103DF800B744014022CC4AC84EC606CEAE893289A5
:103E0800014493840480634A2401F24062444A8551
:103E1800D2444249B249056182809305000426854F
:103E2800C93D65DDB38789008385070026850504BC
:103E3800C205C181553DC1BF938741809C43176727
:103E48000020130767023E95636CE50017C7002042
:103E58001307C71A6366A70023A2A1803E85828044
:103E6800FD57EDBF938681869C429843634B0702BA
:103E7800984337060080C205518F98C3B787024020
:103E88002395A700C1812394B70003C77700054590
:103E980013678700A383E7009C42DC4723A4F186CD
:103EA800828001458280854789456316F50037156C
:103EB80001406FF0EFD5371501406FF0AFD585475A
:103EC80085456316F500371501406FF06FD4371537
:103ED80001406FF02FD437F7FF1F81471307D77EB4
:103EE80099463306F740834506003306F5008507F3
:103EF8002300B600E397D7FE82801387C1861C4350
:103F08003E9508C38280411122C406C63784024008
:103F180095472302F4028547835604022302F402DC
:103F280083570402FD8A1397070183C7A187638219
:103F3800060C93968701E18663CC060403C781804B
:103F48009376C70089EEA3810188238C01869307A5
:103F580000F8238DF186B24022444101828093F615
:103F68002700F5F293E727006D9B238DF186A38048
:103F780001882384E180230204028357040293E723
:103F88000720C20793E707105CD083C781807DA80C
:103F980083C7318893861700A381D1889546E39C0F
:103FA800D7FA418393770702DDF7A3810188A380BD
:103FB800018823800188238D018623020402835708
:103FC800040293E70720C20793E707105CD003C7F2
:103FD80081809376C7009377B70F99E2936747007C
:103FE8002384F180C20793E7E711378702405CD347
:103FF8009DB7130700086394E70283C781872947A1
:104008006386E7008507238CF186B1B7238C018688
:10401800A380018823800188238D01862DBF85EF29
:1040280083C70188138717002380E1882947E39015
:10403800E7FA23800188F9472302F4028357040230
:1040480093F7370F93C737002384F180C20793E7AC
:10405800E7115CD009B70947E39FE7EE83C7818082
:1040680013F7C70015E393E747002384F180230281
:10407800040283570402294593E70720C20793E700
:1040880007105CD04D3111B783C711883D47E381D4
:10409800E7F88507A380F1887DBD9387C1869C4397
:1040A80023AEF18603C73186894763FBE702B787EA
:1040B800024079472382E70203D707024207418378
:1040C80093562700858A9367470099C2937737FFED
:1040D800C20793E7E711378702405CD3A3810186C3
:1040E800828083C79187B1CB9387C1861387C187A5
:1040F8009C431843998F1307301F6371F708A38CEB
:104108000186374702408327078093E7470023202B
:10411800F780B707008093870710378702405CD382
:10412800A381018823810188238C0186A3800188CB
:1041380023800188238D0186828083C7218885E3B7
:104148001387C1869386C1871C439442958F930633
:10415800100363F5F6021C4323AEF1866DB383C7E3
:10416800018789CF9387C1861387C1879C431843EA
:10417800998F130730066373F70005B782804111E2
:1041880006C6EF10806DEF10C051B240410191BFDB
:1041980001118545414506CE02C202C402C6EFF0B0
:1041A8000FC18D472312F100C1473EC64C008D4711
:1041B800371501403EC4EFF08F9989453715014006
:1041C800EFF00FA5854537150140EFF06FA4F240D9
:1041D8000561828023A2A1868147B7080080130366
:1041E8000060130EF6FF63E3C7008280338867021E
:1041F80013974700B306E50023A016012E9823A4C1
:1042080006012A8863F5C70141073308E5008507D9
:1042180023A6060193F7F70FF9B7938741869C43C6
:1042280003D78700B78702402396E70003C77700C4
:1042380013674700A383E700828005456FF0CFBC72
:10424800011106CE2AC6D53FB7870240A3810700D1
:1042580003C737001367B70DA381E70003C737000B
:1042680013674700A381E7007D572382E70003C750
:1042780057001367070CA382E70003C7770013678B
:10428800070CA383E70003C777001377F703A3831B
:10429800E700238C07003245034755002384E702D3
:1042A80003474500A384E702034735002385E70257
:1042B80003472500A385E702034715002386E70285
:1042C80003470500A386E70203C797011367170092
:1042D800A38CE70003C7A7017D8B238DE70003C7E5
:1042E800A70113670702238DE70003C7A701136718
:1042F8000701238DE70003C7A7011377B70F238DA5
:10430800E70013070060239FE70003C767001377E0
:10431800170F2383E70003C767001367A7002383EA
:10432800E7003747024083270780F24093E74700BA
:104338002320F780056182804111B787024022C49B
:1043480026C24AC006C615472382E702054783D41A
:1043580007022382E70203D40702C204C180420491
:104368004180937744001389C1868DC785E4B74699
:10437800024083A70680ED9B23A0F680A38CE186EC
:1043880083270900B240224423AEF18692440249B1
:10439800410182802285EF10804D137444029307F7
:1043A8004002631AF404378702408347A70193F455
:1043B80004049DCC93E71700230DF70037870240CC
:1043C8008347870193E70702230CF700A38101863F
:1043D80085472388F186832709002244B24023AE0B
:1043E800F1869244024991472381F188410135B50C
:1043F80093F7E70FD1B73747024083270780ED9B34
:104408002320F7808547A38CF1869DBF411106C6FE
:1044180022C4B786024003C446001374F40F93778E
:104428000404C9C3930700042382F60093874186D6
:104438009C439843635B070403C7560013778707B9
:1044480061EBD0471842635207049843E175FD15A4
:104458000607058398C398436D8F98C39843B7059B
:1044680001C0FD151367073098C398436D8F98C333
:1044780003D7E6008C43110742074D8F98C323A248
:10448800C186835786002396F60083C7018799CB98
:1044980023880186378702408347870193F7F70D02
:1044A800230CF7009377840089CF938781869843FC
:1044B8001C43860785831CC3B78702402147238294
:1044C800E7009377040199C7853DB78702404147C4
:1044D8002382E7009377240089CF938781869843C6
:1044E8001C43860785831CC3B7870240094723827C
:1044F800E700058811CC83C7018791C783C7318638
:104508008507A381F186B787024005472382E70024
:10451800B240224441018280411106C622C42A8445
:10452800853913054006EFF07F832285113B938779
:1045380081A923A4F18617D7FF1F130727641384C3
:1045480081A598C723A00700DCC72285114697C517
:10455800FF1F9385A5E2BD39B24023AA8186224474
:10456800B7E700E03707002023A2E7104101828067
:104578005D71930700603ECA9307405B3ECC856738
:10458800938747233ECE930720033ED093073002FC
:104598003ED2B72755028D073ED497070000938770
:1045A80047923ED697070000938727903ED89707F3
:1045B80000009387678B3EDAB7573412CAC09387D7
:1045C80087672A894808A2C4A6C286C62EC632C4EE
:1045D800B68402DC3EDEEF1090272A8411E92246D9
:1045E800B245A6864A85EF10901A2A8426852D376B
:1045F8002285B640264496440649616182800D456D
:104608006FF06F91B287411113962500AA853E85F8
:1046180006C6EFB0DFC9B2400145410182800111F1
:1046280006CE22CC32C62A84EFE07FC32285EFE093
:10463800DFC532462285B285EFE01FC8EFE01FC410
:104648000545EFF04FEEF240624401450561828076
:104658001971130600028145081086DEA6DAA2DC6D
:10466800CAD8CED6D2D4D6D2DAD0DECEE2CCE6CAFA
:10467800EAC8EEC6EF805074B717024083AD8701D1
:1046880003AD4700B72701409384074083AC44003B
:1046980003AC840083ABC40203AB040383AA4403C2
:1046A80003AAC40083A9040103A944019C4C8545BD
:1046B800130500203EC2DC4C372401403EC49C5008
:1046C8003EC6DC503EC89C543ECA9C5C3ECCEFE0E3
:1046D8001FEE3165EFE0BFD52685EFE03F9B37073A
:1046E8000E003AD60C1005472685230AE10202D0AF
:1046F80002D202D402D8EFE0DF9D85452685EFE09F
:10470800DFA285452685EFE07FB30545EFE07FB062
:104718009D460546C1452685EFE0BFA3854526850C
:10472800EFE0BFA1A6873E858945EFE09FB0B72798
:1047380001409387074065D913050440EFE0FFACBB
:104748002ACE13050440EFE07F94B717024023AC4C
:10475800B70123A2A70123229441232484412326BD
:10476800744323286443232A54432326444192470D
:1047780023283441232A2441232CF440A24772479A
:10478800F650232EF440B247D65446592320F4421B
:10479800C247B659265A2322F442D247965A065B94
:1047A8002324F442E247F64B3A85232CF44266541C
:1047B800664CD64C464DB64D09618280411193979F
:1047C800050122C406C6C1872E8463DD0700EFB049
:1047D800BFA319C1EFA0C0152165218DB2402244A5
:1047E8004101828093F7150013C51500E5FB9397E7
:1047F800250163D00702EFB0F145113537F6020005
:10480800130606E0896503C58188EFA0E06809659D
:10481800E9B7939715010145E3D207FC1765020034
:104828001305856DEF80707513060064916503C5E7
:104838008188EFA0606611654DB71D7197E7FFFF8E
:104848009387C7785546976502009385256B17753A
:1048580002001305A5B186CE23A2F188EFB05FB69A
:1048680001E9176502001305E56AEF80107101A0E0
:10487800B7270240D857B7060090FD16758FD8D7CE
:10488800D857B706003013060004558FD8D7D85725
:10489800B70600038145558FD8D70808EFB0DFA7C2
:1048A800972700209387C7123EC88967938707C058
:1048B800231AF100B7870708938707C03ECC9307F0
:1048C8003050231FF100ED472310F10285472301E3
:1048D800F10297070000938727D3BEC4970700000B
:1048E800938727D4BEC69167938707E82317F102F9
:1048F8009307803E2318F1028567938797D0231288
:10490800F102970700009387E7D43EDE2800970757
:104918000000938707CFBEC0EFE05FA0180881476B
:10492800994630003E960346060085070507A30B07
:10493800C700E398D7FEC24791C70357410185676F
:104948006373F70001A00808EFA0D02DAA8501C95C
:10495800176502001305455DEF80905001A085455D
:1049680013050004EFE0DFC2B7E700E03707008077
:10497800F64023A2E710054723A4E71025618280AB
:104988004111170500001305A5E306C622C4EFA0D0
:10499800B025138481882300A40029280345040036
:1049A8002244B24037F60200130606E08965410149
:1049B8006FA0804E011185453705001806CE02C04C
:1049C80002C202C402C6EFE07FC00545EFE0DFA4E3
:1049D8000545EFE07FA90145EFE09FA613050020FC
:1049E800EFE0DFA90545EFE03FAAEFE07FD0EFE079
:1049F8003FD00545EFE07FCDEFE09FCF0145EFE0E9
:104A08009FCAEFE0FFCEE53EFD573EC2B747E80339
:104A1800938707E83EC40A8597F7FFFF938747C344
:104A28003EC0EFA0D04D01C9AA8517650200130545
:104A3800A551EF80F042F240056182808547370535
:104A4800020023A6F188EFE0FF800945EFE09FCC44
:104A5800EFE01FCA73002030835725000355050077
:104A68003385A740420541818280AA8705C2130782
:104A7800F6FFB376C700054599EA23A00700CCC323
:104A88002394C7002395E70001458280054582806D
:104A9800232005008280AA871145B5C72DC683D675
:104AA800070003D787000D45369783D62700158F53
:104AB8004207418329CB0145B9C583560600637374
:104AC800D700BA86C206C182014713150701418182
:104AD8006366D5002310D600014582803385E50042
:104AE8008348050003D8A70003D5270005073378B6
:104AF8000501C84342952300150103D52700050584
:104B08002391A700D9B78280AA871145B1CF29CEB2
:104B180083D6070003D72700158F83560600420760
:104B280041836373D700BA86C206C18209450DCF97
:104B380001476366D7002310D6000145828003D55C
:104B4800070003D8A70033780501C84342950348F6
:104B580005003385E50005072300050103D5070097
:104B680005052390A700F1B782807300203001A0CB
:104B7800EFF0DF89730020302945EFF00FB8854545
:104B880037050040EFF02F8673002030EFD08FD329
:104B980073002030AA8519C5176502001305055B47
:104BA8006F80102C828001118545054506CE02C212
:104BB80002C423160100EFE07FA19387C1809C43C4
:104BC80037470F0013070724B3D7E7024C00370510
:104BD800004023150100FD172314F100896793870E
:104BE800F7703EC2EFE01FF50546854537050040E2
:104BF800EFE01FFE854537050040EFE0BFFB854528
:104C080037050040EFE03FFEF240B7E700E00567F8
:104C180023A2E710056182805D711306C0038145F8
:104C2800480086C6A2C4A6C2CAC09384A180EF80E9
:104C3800B01883D704001384918A4C003ED68D4760
:104C48003ED08567938787B622853EC8EF106059A6
:104C580003D60400834504002A891765020013055A
:104C68006531EF80F01F4A85353703450400EF10A2
:104C7800F05483450400AA84176502001305C53162
:104C8800EF80101E26853937B640264496440649DB
:104C980061618280797106D622D426D24AD04ECE5E
:104CA80002C6631A0512176502001305A5302E8483
:104CB800EF80B02C1146A28513854189EF80100240
:104CC80093094400130984000DE11146CE8513852C
:104CD8000189EF80B00011E91146CA8513858189E1
:104CE800EF80C07F85446300050E11466C00138574
:104CF8004189EF80A07E11CD83C5818A17650200A6
:104D08001305452CEF80D015814503C5818AEF1026
:104D1800B0601146A28513854189EF80807E1146D7
:104D2800CE8513850189EF80C07D1146CA8513851C
:104D38008189EF80007D03C7718983C6618903C6B5
:104D4800518983C541891765020013052529EF801C
:104D5800301103C7318983C6218903C6118983C5E8
:104D68000189176502001305E528EF80700F03C756
:104D7800B18983C6A18903C6918983C581891765CD
:104D880002001305E528EF80B00D0347F4008346C1
:104D9800E4000346D4008345C400176502001305E8
:104DA800A5288544EF80D00B0347340183462401AE
:104DB80003461401834504011765020013054528BD
:104DC800EF80100A913DB250225426850259925420
:104DD800F24945618280AA85176502001305C52737
:104DE800EF80100811466C0013854189EF80006F31
:104DF800814471D983C5818A176502001305851C12
:104E0800EF801006814503C5818AEF10F05065BF19
:104E18009307C0033307F5029707002093870743DA
:104E2800011106CEBA97D44798473697D44B9C4F72
:104E38003386F6006374C700B307D7407000814516
:104E48003EC6EF100061F24005618280411122C424
:104E580026C206C693F745002A84AE8491C34D3F07
:104E680093F78400B5C785452285EF10F02F0566B6
:104E7800130686B697050020938585482285EF108E
:104E8800405803C7C18A9307F00F6309F70A03C79D
:104E9800D18A6307F70A03C7E18A6318F70009474D
:104EA8009387C18ABA972380870017550020130576
:104EB800E582F93EA387818A9387C1869C43A285B0
:104EC800176502001305851E23A2F18AEF80407939
:104ED80093F704019DC7A387018A83C7C18A6383A7
:104EE800870683C7D18A6387870683C7E18A09470C
:104EF800638B8704A285176502001305A51CEF8044
:104F0800207693F40404BDC0A387018A83C7C18AAD
:104F18006384870483C7D18A6388870483C7E18A47
:104F28000947638C8702A2852244B24092441765E0
:104F380002001305E51A41016F80807201478DB7A1
:104F48000547B9BF01479387C18ABA977D57238020
:104F5800E7004DB70547C5BF01479387C18ABA9790
:104F68007D572380E700C1B70547C5BFB24022443B
:104F7800924441018280411122C406C626C24AC019
:104F8800EF10301A937715002A8499C71765020025
:104F98001305C50DEF80607E9377240099C71765C8
:104FA80002001305E50DEF80407D937744009DC313
:104FB800EF10F01A118919CD176502001305C50DF8
:104FC800EF80A07BEF003033170500001305C5CC38
:104FD800EF00302D41880DC001440D499374F40F42
:104FE8002685EF103015AA8519C126858535050453
:104FF80042044180E31424FFB2402244924402490F
:105008004101828083C7F18AB5CF0111174500207D
:105018001305C56C06CEEFF03FA48567138777B6F6
:105028006377A704938787B63EC67000971500205C
:10503800938585E3174500201305456AEFF0DFAC3B
:1050480097150020938545E2700003C5F18AEF109B
:105058006075AA8519C517650200130565F0EF800C
:1050680020609387C1869C4323A2F18A09A817452B
:1050780000201305A566EFF03F9E2AC65DF5F240B5
:1050880005618280828041119397050122C406C67A
:10509800C1872E8463DF070003C5A18AEFB0CF96CE
:1050A80019C1EF90F0082165218DB24022444101D9
:1050B800828093F725000145EDDBA93713452400CD
:1050C800EDB7797117050000130525FC06D622D423
:1050D80026D24AD04ECEEFA020312385A18AEF10E8
:1050E800200AAA851765020013050501EF804057BD
:1050F800EF100009E5476308F5001765020013057E
:10510800E500EF8080671385C189EFE0DFDC176574
:1051180002001305A500EF80A05401449389C189BA
:1051280017690200130949009944B387890083C5A8
:1051380007004A850504EF80A052E31894FE17651E
:1051480002001305E5E7EF804063EFF0DFA5176580
:1051580002001305A5FDEF00D0239386C1891386AD
:1051680081899385018913854189EFF06FC02A846D
:10517800EFF05FA219E4176502001305A5FBEF80A5
:10518800C05FFD5717050000130505B12396F18A86
:105198002387F18AEF00F0109567938707E23EC2F4
:1051A8009167938787A93EC44800A5473EC6EF008C
:1051B800B068B250225492540259F2494561828033
:1051C800411106C6EFE0BFFBEF10C07111C1653396
:1051D80083C7F18A95C31387C1869386418A94420F
:1051E8001C43958F9306900F63F8F6001C43B2405A
:1051F80023A2F18A410139B5B240410182804111AF
:1052080006C6FD26EFE0BFAF716513050520EFE088
:105218005FB8976502009385651517650200130549
:10522800E5F3EF80E043EFF04FE1EFF06FF5EF10BB
:105238000202812C7935EFA01FF58347250079718B
:1052480022D406D626D24AD04ECE35472A84638643
:10525800E70A636DF700D1C705476385E714B250C5
:10526800225492540259F249456182804147638130
:10527800E7144947E395E7FE83C7F18AEDD303496D
:105288009501034735009305550097370020238182
:1052980027358347450093140901C1809207D98FA8
:1052A80017370020A306F7328347C5000347B50028
:1052B80019469207D98F17370020230CF7308347F8
:1052C800F500173500201305E5302317910017372F
:1052D8000020A300F730EF80C022C9C44A864C4C96
:1052E800A5A8014681450D45EF0012221765020069
:1052F800130545E7EF8060489DB783C7F18AA5D3BA
:105308000349C5000347350093055500973700202A
:105318002380272D8347450093140901C1809207F4
:10532800D98F17370020A305F72AC547173700205C
:105338002301F72A8347B5001946173500201305BE
:1053480065292317910017370020A304F728EF8059
:10535800401B89C80C484A86173500201305E527E5
:10536800EF80201AA904231791001306E10097354E
:1053780000209385E5251745002013052536EFF015
:105388008FF11745002013056535EFF0EFEC8567C1
:10539800938777B6E3F5A7EC894503C5A18AEF9013
:1053A800901075BD014681450D45EF00F21545BDCC
:1053B80017650200130505DCEF80802A9304A4001A
:1053C80013094400976902009389C9DB83C5040067
:1053D8004E85FD14EF80C028E31A99FE1765020078
:1053E800130505BEEF80603983C7F18AE38907E6B4
:1053F80097370020238E071C834744000347340057
:1054080019469207D98F17370020A303F71CC54701
:1054180017370020230FF71A8347240193055400F8
:10542800173500201305051B17370020A303F71AAB
:10543800EF80200DA9472317F10005BF411193976D
:10544800050122C406C6C1872E8463DF070003C591
:10545800018BEFA07FDB19C1EF90804D2165218D75
:10546800B24022444101828093F715000145EDDBEB
:10547800176502001305453DEF00F20613451400B9
:10548800C5B7011117050000130585FB06CE22CC10
:10549800EF9090751384018B2300A400056697355F
:1054A80000209385A5231745002013052523EFF039
:1054B800CFDB930700041306F10085451305E030A0
:1054C800A307F100EF0012278965938505F40945C4
:1054D800EFB0B03A954513051002EFB0103A814588
:1054E8005545EFB09039034504008545EF90A07B02
:1054F800F240624405618280B71702409843B706BC
:10550800FFF841111367170098C3D8433706020004
:10551800758FD8C39843B706F7FEFD16758F98C3E5
:105528009843B706FCFFFD16758F98C3D843B70696
:1055380081FFFD16758FD8C337079F0098C702C42F
:1055480002C69843C166558F98C3B71602400567CF
:105558009C42F18F3EC6A24785073EC4B24781E709
:10556800A247E397E7FEB71702409C431397E7006B
:10557800635E070685473EC6324785476316F706CA
:10558800B7170240D843B706C000558FD8C3D843D1
:10559800B706C1FFFD1613670708D8C3D843D8C399
:1055A800D84313670740D8C3D843758FD8C3D843A7
:1055B800B7063500558FD8C39843B7060001558FF5
:1055C80098C3984393166700E3DD06FED843B716E1
:1055D8000240719BD8C3D84313672700D8C321471B
:1055E800DC42B18BE39EE7FE4101828002C669B7C7
:1055F800371702405C439146B18B638FD702A146AF
:105608006381D704B7177A009387072023A6F18010
:10561800B7170240DC4317B7FF1F1307279F918373
:10562800BD8BBA9703C707009387C1809C43B3D744
:10563800E70023A6F1808280B757E80193870780A7
:10564800F1B75C435843C166C983BD8B758F890721
:10565800C5466393D700C94701EF37470240032780
:105668000780418B15CB37177A001307072029A825
:10567800B7160240D8423706C000718F6319C700B9
:105688003727F40013070740B387E70241B7D8422A
:105698009316E700E3D906FC37173D001307079078
:1056A800E5B7EF72B06083A7C18641113EC6EF101F
:1056B800002B1189630005149387C19B9843B24658
:1056C800998E37A700200327079205836376D700B2
:1056D800324798C3EF40F048EF40507483A7C19C0D
:1056E80091C7EF40304A19E123A6019C9384819B1E
:1056F8009840B247998F1307703E6376F700EF2002
:10570800C030B2479CC09387419A9843B246998E5D
:105718000567130777386376D700324798C3EF10C9
:10572800E06BB7A700209387478ED84711CF138720
:10573800419B1043B246918E1306703E6376D600A5
:10574800B246DC4314C38297B7A4002083A7C48859
:10575800A9CB1387019B1C43B2461306A00F9D8E4D
:10576800B7A7002083A7C795ED83B387C70263E96E
:10577800F600B2471CC39387C4889C4B91C3829799
:105788009387C19A9843B246998E3D671307F7A548
:105798006379D70032479384C48898C3DC4891C39F
:1057A800829732459384819A412C9C4032471D8FC1
:1057B800BD679387F7A563F5E7009924B2479CC0B6
:1057C80003C7A19CBE841377F70F0DC703C7A19C1D
:1057D8001377070C1DE3B7A7002083A7479699C343
:1057E8000545829703A7C18623A2E19C930700047D
:1057F8002385F19C41016F70B04D03C7A19C1377BD
:10580800070415CB83A6419C03A7C1861389419C35
:10581800158F93064006E3FFE6FCB7A7002083A791
:10582800479699C30145829783A7C1862320F9002B
:10583800930700F875BF03C7A19C62076187E35B04
:1058480007FA83A6419C03A7C186158F93064006D5
:10585800E3F2E6FA2385019C71BFEF72304537A564
:10586800002013054597EF10303B6F707046EF72BC
:10587800F043B7A7002093874790D85737A4002054
:1058880088D313674700D8D71189930784949C4F0E
:105898001304849401CD99C3014582975C4C99C344
:1058A800014582970545352A6F70904299C3054591
:1058B80082975C4CF5DB05458297FDB783A7418746
:1058C800232005009DCB944363DB0600D447904218
:1058D800634506029C4363D4070023AAD18683A7A5
:1058E800418791650146FD153548B7080080944306
:1058F80063D7060019C223AAF18601458280944322
:105908001393060163420304944393F606108DCE65
:10591800944393F606208DCA9443C182ED8EF11606
:1059280014C16371D802944393F6060281EA19C23E
:1059380023AAF1869C475CC105458280944393F66F
:105948001608F5D62320050023A017010546DC47D5
:1059580079BF03A74187B706008014C3584723AA15
:10596800E1868280EF72903483C7A19C93F7F70F8A
:1059780081E785472385F19C03A7C1869387019C0E
:1059880009CB98C3B7A7002083A7879682976F7023
:1059980030340547FDB7B7A7002083A78796014590
:1059A80085CF03A781860DCB144308479387019CB5
:1059B80063D206028C43A16689069308300603A6C3
:1059C800C1860D8E63E4C800FD1681EA144386067D
:1059D800858214C323A0070082801043E34106FE9A
:1059E800D5BF03A7C186B7A700209387078888A3D8
:1059F800239107002392070098C7A380070082809D
:105A0800EF72D02AB7A40020138444975C40411158
:105A18006C00138544973EC623220400EF10005DF6
:105A2800B2476C00138544975CC05C443EC6EF10D7
:105A3800E05B41016F70D029B7A7002093870788E2
:105A4800982319E388C7828098479306703E3307E6
:105A5800E54063F1E602EF727025BA2388C79146E4
:105A680063F6E6000145B53F6F7090260507BAA3B7
:105A7800413FDDBF8280EF7270232A84014595374C
:105A8800B7A700209387078811C8054798B3B7A719
:105A98000020094723A8E7926F709023A38007008E
:105AA800E5BFEF72B02037A400201304C4881C405F
:105AB800A9E3B7970000938767FB1CC8B797000056
:105AC800938727E85CC808C4B797000037A500206B
